{"abi":[{"type":"constructor","inputs":[{"name":"_settler","type":"address","internalType":"address"},{"name":"_teeSigner","type":"address","internalType":"address"},{"name":"_owner","type":"address","internalType":"address"}],"stateMutability":"nonpayable"},{"type":"function","name":"activeLoans","inputs":[{"name":"","type":"bytes32","internalType":"bytes32"}],"outputs":[{"name":"","type":"bool","internalType":"bool"}],"stateMutability":"view"},{"type":"function","name":"addCollateral","inputs":[{"name":"loanHash","type":"bytes32","internalType":"bytes32"},{"name":"token","type":"address","internalType":"address"},{"name":"amount","type":"uint256","internalType":"uint256"}],"outputs":[],"stateMutability":"nonpayable"},{"type":"function","name":"depositAndLend","inputs":[{"name":"token","type":"address","internalType":"address"},{"name":"amount","type":"uint256","internalType":"uint256"},{"name":"intentHash","type":"bytes32","internalType":"bytes32"}],"outputs":[],"stateMutability":"nonpayable"},{"type":"function","name":"depositCollateralAndBorrow","inputs":[{"name":"token","type":"address","internalType":"address"},{"name":"amount","type":"uint256","internalType":"uint256"},{"name":"intentHash","type":"bytes32","internalType":"bytes32"}],"outputs":[],"stateMutability":"nonpayable"},{"type":"function","name":"deposits","inputs":[{"name":"","type":"address","internalType":"address"},{"name":"","type":"address","internalType":"address"}],"outputs":[{"name":"","type":"uint256","internalType":"uint256"}],"stateMutability":"view"},{"type":"function","name":"disburseBorrow","inputs":[{"name":"borrower","type":"address","internalType":"address"},{"name":"token","type":"address","internalType":"address"},{"name":"amount","type":"uint256","internalType":"uint256"},{"name":"loanHash","type":"bytes32","internalType":"bytes32"},{"name":"deadline","type":"uint256","internalType":"uint256"},{"name":"ticket","type":"bytes","internalType":"bytes"}],"outputs":[],"stateMutability":"nonpayable"},{"type":"function","name":"epochTranches","inputs":[{"name":"","type":"uint256","internalType":"uint256"}],"outputs":[{"name":"seniorMatched","type":"uint256","internalType":"uint256"},{"name":"juniorMatched","type":"uint256","internalType":"uint256"}],"stateMutability":"view"},{"type":"function","name":"getEpoch","inputs":[],"outputs":[{"name":"","type":"uint256","internalType":"uint256"}],"stateMutability":"view"},{"type":"function","name":"getVaultBalance","inputs":[{"name":"token","type":"address","internalType":"address"}],"outputs":[{"name":"","type":"uint256","internalType":"uint256"}],"stateMutability":"view"},{"type":"function","name":"liquidate","inputs":[{"name":"loanHash","type":"bytes32","internalType":"bytes32"},{"name":"collateralToken","type":"address","internalType":"address"},{"name":"collateralSeized","type":"uint256","internalType":"uint256"},{"name":"debtToken","type":"address","internalType":"address"},{"name":"debtAmount","type":"uint256","internalType":"uint256"}],"outputs":[],"stateMutability":"nonpayable"},{"type":"function","name":"owner","inputs":[],"outputs":[{"name":"","type":"address","internalType":"address"}],"stateMutability":"view"},{"type":"function","name":"policyEngines","inputs":[{"name":"","type":"address","internalType":"address"}],"outputs":[{"name":"","type":"address","internalType":"address"}],"stateMutability":"view"},{"type":"function","name":"recordRepayment","inputs":[{"name":"loanHash","type":"bytes32","internalType":"bytes32"},{"name":"principal","type":"uint256","internalType":"uint256"},{"name":"interest","type":"uint256","internalType":"uint256"},{"name":"","type":"bytes","internalType":"bytes"}],"outputs":[],"stateMutability":"nonpayable"},{"type":"function","name":"registerToken","inputs":[{"name":"token","type":"address","internalType":"address"},{"name":"policyEngine","type":"address","internalType":"address"}],"outputs":[],"stateMutability":"nonpayable"},{"type":"function","name":"registeredTokens","inputs":[{"name":"","type":"address","internalType":"address"}],"outputs":[{"name":"","type":"bool","internalType":"bool"}],"stateMutability":"view"},{"type":"function","name":"renounceOwnership","inputs":[],"outputs":[],"stateMutability":"nonpayable"},{"type":"function","name":"setSettler","inputs":[{"name":"_settler","type":"address","internalType":"address"}],"outputs":[],"stateMutability":"nonpayable"},{"type":"function","name":"setTeeSigner","inputs":[{"name":"_teeSigner","type":"address","internalType":"address"}],"outputs":[],"stateMutability":"nonpayable"},{"type":"function","name":"settleEpoch","inputs":[{"name":"epochId","type":"uint256","internalType":"uint256"},{"name":"clearingRate","type":"uint256","internalType":"uint256"},{"name":"totalMatched","type":"uint256","internalType":"uint256"},{"name":"","type":"bytes","internalType":"bytes"}],"outputs":[],"stateMutability":"nonpayable"},{"type":"function","name":"settleEpochWithTranches","inputs":[{"name":"epochId","type":"uint256","internalType":"uint256"},{"name":"clearingRate","type":"uint256","internalType":"uint256"},{"name":"totalMatched","type":"uint256","internalType":"uint256"},{"name":"seniorMatched","type":"uint256","internalType":"uint256"},{"name":"juniorMatched","type":"uint256","internalType":"uint256"},{"name":"","type":"bytes","internalType":"bytes"}],"outputs":[],"stateMutability":"nonpayable"},{"type":"function","name":"settledEpochs","inputs":[{"name":"","type":"uint256","internalType":"uint256"}],"outputs":[{"name":"","type":"bool","internalType":"bool"}],"stateMutability":"view"},{"type":"function","name":"settler","inputs":[],"outputs":[{"name":"","type":"address","internalType":"address"}],"stateMutability":"view"},{"type":"function","name":"teeSigner","inputs":[],"outputs":[{"name":"","type":"address","internalType":"address"}],"stateMutability":"view"},{"type":"function","name":"transferOwnership","inputs":[{"name":"newOwner","type":"address","internalType":"address"}],"outputs":[],"stateMutability":"nonpayable"},{"type":"function","name":"usedIntents","inputs":[{"name":"","type":"bytes32","internalType":"bytes32"}],"outputs":[{"name":"","type":"bool","internalType":"bool"}],"stateMutability":"view"},{"type":"function","name":"usedTickets","inputs":[{"name":"","type":"bytes32","internalType":"bytes32"}],"outputs":[{"name":"","type":"bool","internalType":"bool"}],"stateMutability":"view"},{"type":"function","name":"withdraw","inputs":[{"name":"token","type":"address","internalType":"address"},{"name":"amount","type":"uint256","internalType":"uint256"},{"name":"deadline","type":"uint256","internalType":"uint256"},{"name":"ticket","type":"bytes","internalType":"bytes"}],"outputs":[],"stateMutability":"nonpayable"},{"type":"event","name":"BorrowDeposited","inputs":[{"name":"user","type":"address","indexed":true,"internalType":"address"},{"name":"token","type":"address","indexed":false,"internalType":"address"},{"name":"collateralAmount","type":"uint256","indexed":false,"internalType":"uint256"},{"name":"intentHash","type":"bytes32","indexed":false,"internalType":"bytes32"},{"name":"epoch","type":"uint256","indexed":false,"internalType":"uint256"}],"anonymous":false},{"type":"event","name":"BorrowDisbursed","inputs":[{"name":"borrower","type":"address","indexed":true,"internalType":"address"},{"name":"token","type":"address","indexed":false,"internalType":"address"},{"name":"amount","type":"uint256","indexed":false,"internalType":"uint256"},{"name":"loanHash","type":"bytes32","indexed":false,"internalType":"bytes32"}],"anonymous":false},{"type":"event","name":"CollateralAdded","inputs":[{"name":"user","type":"address","indexed":true,"internalType":"address"},{"name":"loanHash","type":"bytes32","indexed":false,"internalType":"bytes32"},{"name":"token","type":"address","indexed":false,"internalType":"address"},{"name":"amount","type":"uint256","indexed":false,"internalType":"uint256"}],"anonymous":false},{"type":"event","name":"EpochSettled","inputs":[{"name":"epochId","type":"uint256","indexed":true,"internalType":"uint256"},{"name":"clearingRate","type":"uint256","indexed":false,"internalType":"uint256"},{"name":"totalMatched","type":"uint256","indexed":false,"internalType":"uint256"}],"anonymous":false},{"type":"event","name":"LendDeposited","inputs":[{"name":"user","type":"address","indexed":true,"internalType":"address"},{"name":"token","type":"address","indexed":false,"internalType":"address"},{"name":"amount","type":"uint256","indexed":false,"internalType":"uint256"},{"name":"intentHash","type":"bytes32","indexed":false,"internalType":"bytes32"},{"name":"epoch","type":"uint256","indexed":false,"internalType":"uint256"}],"anonymous":false},{"type":"event","name":"Liquidated","inputs":[{"name":"loanHash","type":"bytes32","indexed":true,"internalType":"bytes32"},{"name":"collateralToken","type":"address","indexed":false,"internalType":"address"},{"name":"collateralSeized","type":"uint256","indexed":false,"internalType":"uint256"},{"name":"debtToken","type":"address","indexed":false,"internalType":"address"},{"name":"debtAmount","type":"uint256","indexed":false,"internalType":"uint256"}],"anonymous":false},{"type":"event","name":"LoanRepaid","inputs":[{"name":"loanHash","type":"bytes32","indexed":true,"internalType":"bytes32"},{"name":"principal","type":"uint256","indexed":false,"internalType":"uint256"},{"name":"interest","type":"uint256","indexed":false,"internalType":"uint256"}],"anonymous":false},{"type":"event","name":"OwnershipTransferred","inputs":[{"name":"previousOwner","type":"address","indexed":true,"internalType":"address"},{"name":"newOwner","type":"address","indexed":true,"internalType":"address"}],"anonymous":false},{"type":"event","name":"SettlerUpdated","inputs":[{"name":"oldSettler","type":"address","indexed":true,"internalType":"address"},{"name":"newSettler","type":"address","indexed":true,"internalType":"address"}],"anonymous":false},{"type":"event","name":"TokenRegistered","inputs":[{"name":"token","type":"address","indexed":true,"internalType":"address"},{"name":"policyEngine","type":"address","indexed":true,"internalType":"address"}],"anonymous":false},{"type":"event","name":"Withdrawn","inputs":[{"name":"user","type":"address","indexed":true,"internalType":"address"},{"name":"token","type":"address","indexed":false,"internalType":"address"},{"name":"amount","type":"uint256","indexed":false,"internalType":"uint256"}],"anonymous":false},{"type":"error","name":"ECDSAInvalidSignature","inputs":[]},{"type":"error","name":"ECDSAInvalidSignatureLength","inputs":[{"name":"length","type":"uint256","internalType":"uint256"}]},{"type":"error","name":"ECDSAInvalidSignatureS","inputs":[{"name":"s","type":"bytes32","internalType":"bytes32"}]},{"type":"error","name":"EpochAlreadySettled","inputs":[]},{"type":"error","name":"EpochMismatch","inputs":[]},{"type":"error","name":"IntentAlreadyUsed","inputs":[]},{"type":"error","name":"InvalidTicket","inputs":[]},{"type":"error","name":"LoanAlreadyExists","inputs":[]},{"type":"error","name":"LoanNotActive","inputs":[]},{"type":"error","name":"NotSettler","inputs":[]},{"type":"error","name":"OwnableInvalidOwner","inputs":[{"name":"owner","type":"address","internalType":"address"}]},{"type":"error","name":"OwnableUnauthorizedAccount","inputs":[{"name":"account","type":"address","internalType":"address"}]},{"type":"error","name":"SafeERC20FailedOperation","inputs":[{"name":"token","type":"address","internalType":"address"}]},{"type":"error","name":"TicketAlreadyUsed","inputs":[]},{"type":"error","name":"TicketExpired","inputs":[]},{"type":"error","name":"TokenNotRegistered","inputs":[]},{"type":"error","name":"ZeroAddress","inputs":[]},{"type":"error","name":"ZeroAmount","inputs":[]}],"bytecode":{"object":"0x60803461013a57601f61150b38819003918201601f19168301916001600160401b0383118484101761013e5780849260609460405283398101031261013a5761004781610152565b9061005460208201610152565b906001600160a01b039061006a90604001610152565b16918215610127575f80546001600160a01b031981168517825560405194916001600160a01b03909116907f8be0079c531659141344cd1fd0a4f28419497f9722a3daafe3b4186f6b6457e09080a36001600160a01b031680158015610116575b6101075760018060a01b0319600254161760025560018060a01b031660018060a01b03196003541617600355600180556113a490816101678239f35b63d92e233d60e01b5f5260045ffd5b506001600160a01b038216156100cb565b631e4fbdf760e01b5f525f60045260245ffd5b5f80fd5b634e487b7160e01b5f52604160045260245ffd5b51906001600160a01b038216820361013a5756fe60806040526004361015610011575f80fd5b5f3560e01c806307f19eba14610ed55780630bd0ca9a14610d4e578063248190c414610d0b5780633781898b14610cdc57806343f855c314610cb45780634739f7e514610c20578063543546ea14610ba557806359a515ba14610b765780636336803b14610b47578063715018a614610af0578063757991a814610ad35780637b528691146108da5780638035c724146107dc5780638338ce2f146107ad578063871f46991461076d5780638c0bd916146107305780638da5cb5b146107095780638f601f66146106b9578063913120df14610632578063ab221a761461060a578063cef81d8c14610564578063d0062c4d14610432578063d3d7c0021461039d578063d40d13541461036a578063f2fde38b146102e5578063f35dded4146102105763fd65826814610142575f80fd5b3461020c57606036600319011261020c5761015b610f53565b6001600160a01b03165f818152600560205260409020546044359060ff16156101fd5780156101ee57335f52600660205260405f20825f5260205260405f206101a5828254611035565b90556101b3813033856111d5565b604051916004358352602083015260408201527fdd016248708c391ccb5c72f9258127c75b9b291ac1479513fe4f331c3489013760603392a2005b631f2a200560e01b5f5260045ffd5b63259ba1ad60e01b5f5260045ffd5b5f80fd5b3461020c5760a036600319011261020c5760043561022c610f53565b6064356001600160a01b0381169081900361020c576002546001600160a01b031633036102d657825f52600a60205260ff60405f205416156102c7577f89f12e242344302d762e1e784a967c0969f1cfe4449b398b1b3b6dcb3c108c0d91608091845f52600a60205260405f2060ff1981541690556040519160018060a01b03168252604435602083015260408201526084356060820152a2005b630417bc2360e11b5f5260045ffd5b6305b9433360e01b5f5260045ffd5b3461020c57602036600319011261020c576102fe610f3d565b610306611064565b6001600160a01b03168015610357575f80546001600160a01b03198116831782556001600160a01b0316907f8be0079c531659141344cd1fd0a4f28419497f9722a3daafe3b4186f6b6457e09080a3005b631e4fbdf760e01b5f525f60045260245ffd5b3461020c57602036600319011261020c576004355f52600b6020526040805f206001815491015482519182526020820152f35b3461020c57602036600319011261020c57602460206001600160a01b036103c2610f3d565b16604051928380926370a0823160e01b82523060048301525afa8015610427575f906103f4575b602090604051908152f35b506020813d60201161041f575b8161040e60209383610fc1565b8101031261020c57602090516103e9565b3d9150610401565b6040513d5f823e3d90fd5b3461020c5760c036600319011261020c5760043560a43567ffffffffffffffff811161020c57610466903690600401610f69565b50506002546001600160a01b031633036102d657805f52600960205260ff60405f20541661055557600154810361054657805f52600960205260405f20600160ff198254161790556040516040810181811067ffffffffffffffff8211176105325760405260643581526001602082016084358152835f52600b60205260405f2092518355519101556104fa600154611056565b6001557fe6dfe5a4e48226c4ece8d7eb3d8e0b37cd466ccb8e8b30ac5f4cfd81b928f07b6040805160243581526044356020820152a2005b634e487b7160e01b5f52604160045260245ffd5b630af2cbcf60e41b5f5260045ffd5b632cb27f7160e11b5f5260045ffd5b3461020c57608036600319011261020c5760043560643567ffffffffffffffff811161020c57610598903690600401610f69565b50506002546001600160a01b031633036102d657805f52600a60205260ff60405f205416156102c757805f52600a60205260405f2060ff1981541690557fe834157a66d56f162b20e8ec53ff3badeb8678ad53c15482fc0f9104f83fc6666040805160243581526044356020820152a2005b3461020c575f36600319011261020c576002546040516001600160a01b039091168152602090f35b3461020c57608036600319011261020c5760043560643567ffffffffffffffff811161020c57610666903690600401610f69565b50506002546001600160a01b031633036102d657805f52600960205260ff60405f20541661055557600154810361054657805f52600960205260405f20600160ff198254161790556104fa600154611056565b3461020c57604036600319011261020c576106d2610f3d565b6106da610f53565b6001600160a01b039182165f908152600660209081526040808320949093168252928352819020549051908152f35b3461020c575f36600319011261020c575f546040516001600160a01b039091168152602090f35b3461020c57602036600319011261020c576001600160a01b03610751610f3d565b165f526005602052602060ff60405f2054166040519015158152f35b3461020c57602036600319011261020c576001600160a01b0361078e610f3d565b165f526004602052602060018060a01b0360405f205416604051908152f35b3461020c57602036600319011261020c576004355f526009602052602060ff60405f2054166040519015158152f35b3461020c576107ea36610f97565b6001600160a01b0383165f8181526005602052604090205490929060ff16156101fd5780156101ee57815f52600760205260ff60405f2054166108cb5761089a817f3cf6c484943c2737f249d8c18e9b0ecf8f6627910c671bdc7abd2580768fb41794610857338861110b565b845f52600760205260405f20600160ff19825416179055335f52600660205260405f20815f5260205260405f2061088f838254611035565b9055309033906111d5565b600154604080516001600160a01b0396909616865260208601929092529084019190915260608301523391608090a2005b63110ea83560e31b5f5260045ffd5b3461020c5760c036600319011261020c576108f3610f3d565b6108fb610f53565b90604435606435916084359360a43567ffffffffffffffff811161020c57610927903690600401610f69565b6002549192916001600160a01b031633036102d6576001600160a01b0382165f8181526005602052604090205490979060ff16156101fd5785156101ee57865f52600a60205260ff60405f205416610ac457804211610ab557610a2b93610a2293610a1c926040519060208201926001600160601b03198a60601b1684526001600160601b03199060601b1660348301528960488301528a606883015260888201524660a88201523060601b60c882015260bc81526109e760dc82610fc1565b5190207f19457468657265756d205369676e6564204d6573736167653a0a3332000000005f52601c52603c5f20923691610fff565b9061123e565b90929192611278565b6003546001600160a01b03908116911603610aa657826060927fe2dedaebd7d2e4c1825bae5fb11801b42216b71d79d0af1805c60c02f0f32cb1945f52600a60205260405f20600160ff19825416179055610a8781848861108a565b6040805196875260208701919091528501526001600160a01b031692a2005b6319a1b6d960e21b5f5260045ffd5b6340d3544760e01b5f5260045ffd5b63b9000c3b60e01b5f5260045ffd5b3461020c575f36600319011261020c576020600154604051908152f35b3461020c575f36600319011261020c57610b08611064565b5f80546001600160a01b0319811682556001600160a01b03167f8be0079c531659141344cd1fd0a4f28419497f9722a3daafe3b4186f6b6457e08280a3005b3461020c57602036600319011261020c576004355f526007602052602060ff60405f2054166040519015158152f35b3461020c57602036600319011261020c576004355f526008602052602060ff60405f2054166040519015158152f35b3461020c57610bb336610f97565b6001600160a01b0383165f8181526005602052604090205490929060ff16156101fd5780156101ee57815f52600760205260ff60405f2054166108cb5761089a817f69692d26adce68a8757318b21fce32d778a1de750112738e6efa5eff816c6ab094610857338861110b565b3461020c57604036600319011261020c57610c39610f3d565b610c41610f53565b90610c4a611064565b6001600160a01b039081165f818152600560209081526040808320805460ff191660011790556004909152812080546001600160a01b03191694909316938417909255907f487c37289624c10056468f1f98ebffbad01edce11374975179672e32e2543bf09080a3005b3461020c575f36600319011261020c576003546040516001600160a01b039091168152602090f35b3461020c57602036600319011261020c576004355f52600a602052602060ff60405f2054166040519015158152f35b3461020c57602036600319011261020c57610d24610f3d565b610d2c611064565b600380546001600160a01b0319166001600160a01b0392909216919091179055005b3461020c57608036600319011261020c57610d67610f3d565b6024356044359160643567ffffffffffffffff811161020c57610d8e903690600401610f69565b909160018060a01b03811694855f52600560205260ff60405f205416156101fd5784156101ee57804211610ab5576040519060208201923360601b84526001600160601b03199060601b16603483015285604883015260688201524660888201523060601b60a8820152609c8152610e0760bc82610fc1565b51902091825f52600860205260ff60405f205416610ec657610e5d91610a1c610a22927f19457468657265756d205369676e6564204d6573736167653a0a3332000000005f5285601c52603c5f20923691610fff565b6003546001600160a01b03908116911603610aa6575f52600860205260405f20600160ff19825416179055610e9381338461108a565b60405191825260208201527fd1c19fbcd4551a5edfb66d43d2e337c04837afda3482b42bdf569a8fccdae5fb60403392a2005b630869773360e41b5f5260045ffd5b3461020c57602036600319011261020c57610eee610f3d565b610ef6611064565b6002546001600160a01b0391821691829082167f7c72fae177c59a6c85f9a5eca78d204b4a8ad5b668e5beb8c24464870af7160c5f80a36001600160a01b03191617600255005b600435906001600160a01b038216820361020c57565b602435906001600160a01b038216820361020c57565b9181601f8401121561020c5782359167ffffffffffffffff831161020c576020838186019501011161020c57565b606090600319011261020c576004356001600160a01b038116810361020c57906024359060443590565b90601f8019910116810190811067ffffffffffffffff82111761053257604052565b67ffffffffffffffff811161053257601f01601f191660200190565b92919261100b82610fe3565b916110196040519384610fc1565b82948184528183011161020c578281602093845f960137010152565b9190820180921161104257565b634e487b7160e01b5f52601160045260245ffd5b5f1981146110425760010190565b5f546001600160a01b0316330361107757565b63118cdaa760e01b5f523360045260245ffd5b916040519163a9059cbb60e01b5f5260018060a01b031660045260245260205f60448180865af19060015f51148216156110ea575b604052156110ca5750565b635274afe760e01b5f9081526001600160a01b0391909116600452602490fd5b90600181151661110257823b15153d151616906110bf565b503d5f823e3d90fd5b6001600160a01b039081165f90815260046020526040902054169081156111d1575f918291604051602081019163592f29df60e01b835260018060a01b031660248201526024815261115e604482610fc1565b51915afa3d156111cc573d61117281610fe3565b906111806040519283610fc1565b81525f60203d92013e5b1561119157565b60405162461bcd60e51b8152602060048201526013602482015272141bdb1a58de4818da1958dac819985a5b1959606a1b6044820152606490fd5b61118a565b5050565b6040516323b872dd60e01b5f9081526001600160a01b039384166004529290931660245260449390935260209060648180865af19060015f5114821615611226575b6040525f606052156110ca5750565b90600181151661110257823b15153d15161690611217565b815191906041830361126e576112679250602082015190606060408401519301515f1a906112ec565b9192909190565b50505f9160029190565b60048110156112d8578061128a575050565b600181036112a15763f645eedf60e01b5f5260045ffd5b600281036112bc575063fce698f760e01b5f5260045260245ffd5b6003146112c65750565b6335e2f38360e21b5f5260045260245ffd5b634e487b7160e01b5f52602160045260245ffd5b91907f7fffffffffffffffffffffffffffffff5d576e7357a4501ddfe92f46681b20a08411611363579160209360809260ff5f9560405194855216868401526040830152606082015282805260015afa15610427575f516001600160a01b0381161561135957905f905f90565b505f906001905f90565b5050505f916003919056fea2646970667358221220b8001dde907105d5e73b8507a57fd89d324602b89cef333d4c3fd1904e05b52264736f6c634300081a0033","linkReferences":{}},"methodIdentifiers":{"activeLoans(bytes32)":"3781898b","addCollateral(bytes32,address,uint256)":"fd658268","depositAndLend(address,uint256,bytes32)":"8035c724","depositCollateralAndBorrow(address,uint256,bytes32)":"543546ea","deposits(address,address)":"8f601f66","disburseBorrow(address,address,uint256,bytes32,uint256,bytes)":"7b528691","epochTranches(uint256)":"d40d1354","getEpoch()":"757991a8","getVaultBalance(address)":"d3d7c002","liquidate(bytes32,address,uint256,address,uint256)":"f35dded4","owner()":"8da5cb5b","policyEngines(address)":"871f4699","recordRepayment(bytes32,uint256,uint256,bytes)":"cef81d8c","registerToken(address,address)":"4739f7e5","registeredTokens(address)":"8c0bd916","renounceOwnership()":"715018a6","setSettler(address)":"07f19eba","setTeeSigner(address)":"248190c4","settleEpoch(uint256,uint256,uint256,bytes)":"913120df","settleEpochWithTranches(uint256,uint256,uint256,uint256,uint256,bytes)":"d0062c4d","settledEpochs(uint256)":"8338ce2f","settler()":"ab221a76","teeSigner()":"43f855c3","transferOwnership(address)":"f2fde38b","usedIntents(bytes32)":"6336803b","usedTickets(bytes32)":"59a515ba","withdraw(address,uint256,uint256,bytes)":"0bd0ca9a"},"id":78}