{"abi":[{"type":"constructor","inputs":[{"name":"_vault","type":"address","internalType":"address"},{"name":"_forwarder","type":"address","internalType":"address"}],"stateMutability":"nonpayable"},{"type":"function","name":"forwarder","inputs":[],"outputs":[{"name":"","type":"address","internalType":"address"}],"stateMutability":"view"},{"type":"function","name":"onReport","inputs":[{"name":"","type":"bytes","internalType":"bytes"},{"name":"report","type":"bytes","internalType":"bytes"}],"outputs":[],"stateMutability":"nonpayable"},{"type":"function","name":"supportsInterface","inputs":[{"name":"interfaceId","type":"bytes4","internalType":"bytes4"}],"outputs":[{"name":"","type":"bool","internalType":"bool"}],"stateMutability":"pure"},{"type":"function","name":"vault","inputs":[],"outputs":[{"name":"","type":"address","internalType":"contract IGhostVault"}],"stateMutability":"view"},{"type":"error","name":"UnauthorizedForwarder","inputs":[]}],"bytecode":{"object":"0x60c034609057601f6104c438819003918201601f19168301916001600160401b038311848410176094578084926040948552833981010312609057604b602060458360a8565b920160a8565b6001600160a01b0390911660805260a05260405161040890816100bc8239608051818181605f0152818161018c015261026d015260a05181818160a7015261012b0152f35b5f80fd5b634e487b7160e01b5f52604160045260245ffd5b51906001600160a01b038216820360905756fe6080806040526004361015610012575f80fd5b5f905f3560e01c90816301ffc9a71461030757508063805f2132146100d6578063f645d4f9146100915763fbfa77cf1461004a575f80fd5b3461008e578060031936011261008e576040517f00000000000000000000000000000000000000000000000000000000000000006001600160a01b03168152602090f35b80fd5b503461008e578060031936011261008e576040517f00000000000000000000000000000000000000000000000000000000000000006001600160a01b03168152602090f35b346102335760403660031901126102335760043567ffffffffffffffff81116102335761010790369060040161035a565b505060243567ffffffffffffffff81116102335761012990369060040161035a565b7f00000000000000000000000000000000000000000000000000000000000000006001600160a01b031633036102f857806020116102335760208201908235906002821015610233575f918061023757508360c0918101031261023357610233577f00000000000000000000000000000000000000000000000000000000000000006001600160a01b031691823b156102335760e45f928360a095604051968795869463d0062c4d60e01b86523560048601526040810135602486015260608101356044860152608081013560648601520135608484015260c060a48401528160c48401525af180156102285761021c57005b5f6102269161039c565b005b6040513d5f823e3d90fd5b5f80fd5b92939290915060011461024657005b8160c091810103126102335761025e60408201610388565b61026a60808301610388565b927f00000000000000000000000000000000000000000000000000000000000000006001600160a01b031690813b1561023357604051633cd777b560e21b8152903560048201526001600160a01b0392831660248201526060840135604482015293909116606484015260a09091013560848301525f90829060a490829084905af180156102285761021c57005b63d79e123d60e01b5f5260045ffd5b34610233576020366003190112610233576004359063ffffffff60e01b82168092036102335760209163b1a4b56960e01b8114908115610349575b5015158152f35b6301ffc9a760e01b14905083610342565b9181601f840112156102335782359167ffffffffffffffff8311610233576020838186019501011161023357565b35906001600160a01b038216820361023357565b90601f8019910116810190811067ffffffffffffffff8211176103be57604052565b634e487b7160e01b5f52604160045260245ffdfea264697066735822122065fb7d001cd0d574e9d7a4f095f3fa606e952ad9bd7d998f77bf0951cbf4067d64736f6c634300081a0033","linkReferences":{}},"methodIdentifiers":{"forwarder()":"f645d4f9","onReport(bytes,bytes)":"805f2132","supportsInterface(bytes4)":"01ffc9a7","vault()":"fbfa77cf"},"id":79}