{"abi":[{"type":"constructor","inputs":[],"stateMutability":"nonpayable"},{"type":"function","name":"ADMIN_ROLE","inputs":[],"outputs":[{"name":"","type":"bytes32","internalType":"bytes32"}],"stateMutability":"view"},{"type":"function","name":"DEFAULT_ADMIN_ROLE","inputs":[],"outputs":[{"name":"","type":"bytes32","internalType":"bytes32"}],"stateMutability":"view"},{"type":"function","name":"POLICY_CONFIG_ADMIN_ROLE","inputs":[],"outputs":[{"name":"","type":"bytes32","internalType":"bytes32"}],"stateMutability":"view"},{"type":"function","name":"addPolicy","inputs":[{"name":"target","type":"address","internalType":"address"},{"name":"selector","type":"bytes4","internalType":"bytes4"},{"name":"policy","type":"address","internalType":"address"},{"name":"policyParameterNames","type":"bytes32[]","internalType":"bytes32[]"}],"outputs":[],"stateMutability":"nonpayable"},{"type":"function","name":"addPolicyAt","inputs":[{"name":"target","type":"address","internalType":"address"},{"name":"selector","type":"bytes4","internalType":"bytes4"},{"name":"policy","type":"address","internalType":"address"},{"name":"policyParameterNames","type":"bytes32[]","internalType":"bytes32[]"},{"name":"position","type":"uint256","internalType":"uint256"}],"outputs":[],"stateMutability":"nonpayable"},{"type":"function","name":"attach","inputs":[],"outputs":[],"stateMutability":"nonpayable"},{"type":"function","name":"check","inputs":[{"name":"payload","type":"tuple","internalType":"struct IPolicyEngine.Payload","components":[{"name":"selector","type":"bytes4","internalType":"bytes4"},{"name":"sender","type":"address","internalType":"address"},{"name":"data","type":"bytes","internalType":"bytes"},{"name":"context","type":"bytes","internalType":"bytes"}]}],"outputs":[],"stateMutability":"view"},{"type":"function","name":"detach","inputs":[],"outputs":[],"stateMutability":"nonpayable"},{"type":"function","name":"getExtractor","inputs":[{"name":"selector","type":"bytes4","internalType":"bytes4"}],"outputs":[{"name":"","type":"address","internalType":"address"}],"stateMutability":"view"},{"type":"function","name":"getPolicies","inputs":[{"name":"target","type":"address","internalType":"address"},{"name":"selector","type":"bytes4","internalType":"bytes4"}],"outputs":[{"name":"policies","type":"address[]","internalType":"address[]"}],"stateMutability":"view"},{"type":"function","name":"getPolicyConfigVersion","inputs":[{"name":"policy","type":"address","internalType":"address"}],"outputs":[{"name":"","type":"uint256","internalType":"uint256"}],"stateMutability":"view"},{"type":"function","name":"getPolicyMapper","inputs":[{"name":"policy","type":"address","internalType":"address"}],"outputs":[{"name":"","type":"address","internalType":"address"}],"stateMutability":"view"},{"type":"function","name":"getRoleAdmin","inputs":[{"name":"role","type":"bytes32","internalType":"bytes32"}],"outputs":[{"name":"","type":"bytes32","internalType":"bytes32"}],"stateMutability":"view"},{"type":"function","name":"grantRole","inputs":[{"name":"role","type":"bytes32","internalType":"bytes32"},{"name":"account","type":"address","internalType":"address"}],"outputs":[],"stateMutability":"nonpayable"},{"type":"function","name":"hasRole","inputs":[{"name":"role","type":"bytes32","internalType":"bytes32"},{"name":"account","type":"address","internalType":"address"}],"outputs":[{"name":"","type":"bool","internalType":"bool"}],"stateMutability":"view"},{"type":"function","name":"initialize","inputs":[{"name":"defaultAllow","type":"bool","internalType":"bool"},{"name":"initialOwner","type":"address","internalType":"address"}],"outputs":[],"stateMutability":"nonpayable"},{"type":"function","name":"removePolicy","inputs":[{"name":"target","type":"address","internalType":"address"},{"name":"selector","type":"bytes4","internalType":"bytes4"},{"name":"policy","type":"address","internalType":"address"}],"outputs":[],"stateMutability":"nonpayable"},{"type":"function","name":"renounceRole","inputs":[{"name":"role","type":"bytes32","internalType":"bytes32"},{"name":"callerConfirmation","type":"address","internalType":"address"}],"outputs":[],"stateMutability":"nonpayable"},{"type":"function","name":"revokeRole","inputs":[{"name":"role","type":"bytes32","internalType":"bytes32"},{"name":"account","type":"address","internalType":"address"}],"outputs":[],"stateMutability":"nonpayable"},{"type":"function","name":"run","inputs":[{"name":"payload","type":"tuple","internalType":"struct IPolicyEngine.Payload","components":[{"name":"selector","type":"bytes4","internalType":"bytes4"},{"name":"sender","type":"address","internalType":"address"},{"name":"data","type":"bytes","internalType":"bytes"},{"name":"context","type":"bytes","internalType":"bytes"}]}],"outputs":[],"stateMutability":"nonpayable"},{"type":"function","name":"setDefaultPolicyAllow","inputs":[{"name":"defaultAllow","type":"bool","internalType":"bool"}],"outputs":[],"stateMutability":"nonpayable"},{"type":"function","name":"setExtractor","inputs":[{"name":"selector","type":"bytes4","internalType":"bytes4"},{"name":"extractor","type":"address","internalType":"address"}],"outputs":[],"stateMutability":"nonpayable"},{"type":"function","name":"setExtractors","inputs":[{"name":"selectors","type":"bytes4[]","internalType":"bytes4[]"},{"name":"extractor","type":"address","internalType":"address"}],"outputs":[],"stateMutability":"nonpayable"},{"type":"function","name":"setPolicyConfiguration","inputs":[{"name":"policy","type":"address","internalType":"address"},{"name":"configVersion","type":"uint256","internalType":"uint256"},{"name":"configSelector","type":"bytes4","internalType":"bytes4"},{"name":"configData","type":"bytes","internalType":"bytes"}],"outputs":[],"stateMutability":"nonpayable"},{"type":"function","name":"setPolicyMapper","inputs":[{"name":"policy","type":"address","internalType":"address"},{"name":"mapper","type":"address","internalType":"address"}],"outputs":[],"stateMutability":"nonpayable"},{"type":"function","name":"setTargetDefaultPolicyAllow","inputs":[{"name":"target","type":"address","internalType":"address"},{"name":"defaultAllow","type":"bool","internalType":"bool"}],"outputs":[],"stateMutability":"nonpayable"},{"type":"function","name":"supportsInterface","inputs":[{"name":"interfaceId","type":"bytes4","internalType":"bytes4"}],"outputs":[{"name":"","type":"bool","internalType":"bool"}],"stateMutability":"view"},{"type":"function","name":"typeAndVersion","inputs":[],"outputs":[{"name":"","type":"string","internalType":"string"}],"stateMutability":"view"},{"type":"event","name":"DefaultPolicyAllowSet","inputs":[{"name":"defaultAllow","type":"bool","indexed":false,"internalType":"bool"}],"anonymous":false},{"type":"event","name":"ExtractorSet","inputs":[{"name":"selector","type":"bytes4","indexed":true,"internalType":"bytes4"},{"name":"extractor","type":"address","indexed":true,"internalType":"address"}],"anonymous":false},{"type":"event","name":"Initialized","inputs":[{"name":"version","type":"uint64","indexed":false,"internalType":"uint64"}],"anonymous":false},{"type":"event","name":"PolicyAdded","inputs":[{"name":"target","type":"address","indexed":true,"internalType":"address"},{"name":"selector","type":"bytes4","indexed":true,"internalType":"bytes4"},{"name":"policy","type":"address","indexed":false,"internalType":"address"},{"name":"position","type":"uint256","indexed":false,"internalType":"uint256"},{"name":"policyParameterNames","type":"bytes32[]","indexed":false,"internalType":"bytes32[]"}],"anonymous":false},{"type":"event","name":"PolicyAddedAt","inputs":[{"name":"target","type":"address","indexed":true,"internalType":"address"},{"name":"selector","type":"bytes4","indexed":true,"internalType":"bytes4"},{"name":"policy","type":"address","indexed":false,"internalType":"address"},{"name":"position","type":"uint256","indexed":false,"internalType":"uint256"},{"name":"policyParameterNames","type":"bytes32[]","indexed":false,"internalType":"bytes32[]"},{"name":"policies","type":"address[]","indexed":false,"internalType":"address[]"}],"anonymous":false},{"type":"event","name":"PolicyConfigured","inputs":[{"name":"policy","type":"address","indexed":true,"internalType":"address"},{"name":"configVersion","type":"uint256","indexed":true,"internalType":"uint256"},{"name":"configSelector","type":"bytes4","indexed":true,"internalType":"bytes4"},{"name":"configData","type":"bytes","indexed":false,"internalType":"bytes"}],"anonymous":false},{"type":"event","name":"PolicyMapperSet","inputs":[{"name":"policy","type":"address","indexed":true,"internalType":"address"},{"name":"mapper","type":"address","indexed":true,"internalType":"address"}],"anonymous":false},{"type":"event","name":"PolicyParametersSet","inputs":[{"name":"policy","type":"address","indexed":true,"internalType":"address"},{"name":"parameters","type":"bytes[]","indexed":false,"internalType":"bytes[]"}],"anonymous":false},{"type":"event","name":"PolicyRemoved","inputs":[{"name":"target","type":"address","indexed":true,"internalType":"address"},{"name":"selector","type":"bytes4","indexed":true,"internalType":"bytes4"},{"name":"policy","type":"address","indexed":false,"internalType":"address"}],"anonymous":false},{"type":"event","name":"PolicyRunComplete","inputs":[{"name":"sender","type":"address","indexed":true,"internalType":"address"},{"name":"target","type":"address","indexed":true,"internalType":"address"},{"name":"selector","type":"bytes4","indexed":true,"internalType":"bytes4"},{"name":"extractedParameters","type":"tuple[]","indexed":false,"internalType":"struct IPolicyEngine.Parameter[]","components":[{"name":"name","type":"bytes32","internalType":"bytes32"},{"name":"value","type":"bytes","internalType":"bytes"}]},{"name":"context","type":"bytes","indexed":false,"internalType":"bytes"}],"anonymous":false},{"type":"event","name":"RoleAdminChanged","inputs":[{"name":"role","type":"bytes32","indexed":true,"internalType":"bytes32"},{"name":"previousAdminRole","type":"bytes32","indexed":true,"internalType":"bytes32"},{"name":"newAdminRole","type":"bytes32","indexed":true,"internalType":"bytes32"}],"anonymous":false},{"type":"event","name":"RoleGranted","inputs":[{"name":"role","type":"bytes32","indexed":true,"internalType":"bytes32"},{"name":"account","type":"address","indexed":true,"internalType":"address"},{"name":"sender","type":"address","indexed":true,"internalType":"address"}],"anonymous":false},{"type":"event","name":"RoleRevoked","inputs":[{"name":"role","type":"bytes32","indexed":true,"internalType":"bytes32"},{"name":"account","type":"address","indexed":true,"internalType":"address"},{"name":"sender","type":"address","indexed":true,"internalType":"address"}],"anonymous":false},{"type":"event","name":"TargetAttached","inputs":[{"name":"target","type":"address","indexed":true,"internalType":"address"}],"anonymous":false},{"type":"event","name":"TargetDefaultPolicyAllowSet","inputs":[{"name":"target","type":"address","indexed":true,"internalType":"address"},{"name":"defaultAllow","type":"bool","indexed":false,"internalType":"bool"}],"anonymous":false},{"type":"event","name":"TargetDetached","inputs":[{"name":"target","type":"address","indexed":true,"internalType":"address"}],"anonymous":false},{"type":"error","name":"AccessControlBadConfirmation","inputs":[]},{"type":"error","name":"AccessControlUnauthorizedAccount","inputs":[{"name":"account","type":"address","internalType":"address"},{"name":"neededRole","type":"bytes32","internalType":"bytes32"}]},{"type":"error","name":"ExtractorError","inputs":[{"name":"extractor","type":"address","internalType":"address"},{"name":"errorReason","type":"bytes","internalType":"bytes"},{"name":"payload","type":"tuple","internalType":"struct IPolicyEngine.Payload","components":[{"name":"selector","type":"bytes4","internalType":"bytes4"},{"name":"sender","type":"address","internalType":"address"},{"name":"data","type":"bytes","internalType":"bytes"},{"name":"context","type":"bytes","internalType":"bytes"}]}]},{"type":"error","name":"InvalidInitialization","inputs":[]},{"type":"error","name":"InvalidParameters","inputs":[{"name":"reason","type":"string","internalType":"string"}]},{"type":"error","name":"NotInitializing","inputs":[]},{"type":"error","name":"PolicyActionError","inputs":[{"name":"policy","type":"address","internalType":"address"},{"name":"errorReason","type":"bytes","internalType":"bytes"}]},{"type":"error","name":"PolicyConfigurationError","inputs":[{"name":"policy","type":"address","internalType":"address"},{"name":"errorReason","type":"bytes","internalType":"bytes"}]},{"type":"error","name":"PolicyConfigurationVersionError","inputs":[{"name":"policy","type":"address","internalType":"address"},{"name":"expectedVersion","type":"uint256","internalType":"uint256"},{"name":"actualVersion","type":"uint256","internalType":"uint256"}]},{"type":"error","name":"PolicyEngineUndefined","inputs":[]},{"type":"error","name":"PolicyMapperError","inputs":[{"name":"policy","type":"address","internalType":"address"},{"name":"errorReason","type":"bytes","internalType":"bytes"},{"name":"payload","type":"tuple","internalType":"struct IPolicyEngine.Payload","components":[{"name":"selector","type":"bytes4","internalType":"bytes4"},{"name":"sender","type":"address","internalType":"address"},{"name":"data","type":"bytes","internalType":"bytes"},{"name":"context","type":"bytes","internalType":"bytes"}]}]},{"type":"error","name":"PolicyPostRunError","inputs":[{"name":"policy","type":"address","internalType":"address"},{"name":"errorReason","type":"bytes","internalType":"bytes"},{"name":"payload","type":"tuple","internalType":"struct IPolicyEngine.Payload","components":[{"name":"selector","type":"bytes4","internalType":"bytes4"},{"name":"sender","type":"address","internalType":"address"},{"name":"data","type":"bytes","internalType":"bytes"},{"name":"context","type":"bytes","internalType":"bytes"}]}]},{"type":"error","name":"PolicyRejected","inputs":[{"name":"rejectReason","type":"string","internalType":"string"}]},{"type":"error","name":"PolicyRunError","inputs":[{"name":"policy","type":"address","internalType":"address"},{"name":"errorReason","type":"bytes","internalType":"bytes"},{"name":"payload","type":"tuple","internalType":"struct IPolicyEngine.Payload","components":[{"name":"selector","type":"bytes4","internalType":"bytes4"},{"name":"sender","type":"address","internalType":"address"},{"name":"data","type":"bytes","internalType":"bytes"},{"name":"context","type":"bytes","internalType":"bytes"}]}]},{"type":"error","name":"PolicyRunRejected","inputs":[{"name":"policy","type":"address","internalType":"address"},{"name":"rejectReason","type":"string","internalType":"string"},{"name":"payload","type":"tuple","internalType":"struct IPolicyEngine.Payload","components":[{"name":"selector","type":"bytes4","internalType":"bytes4"},{"name":"sender","type":"address","internalType":"address"},{"name":"data","type":"bytes","internalType":"bytes"},{"name":"context","type":"bytes","internalType":"bytes"}]}]},{"type":"error","name":"PolicyRunUnauthorizedError","inputs":[{"name":"account","type":"address","internalType":"address"}]},{"type":"error","name":"TargetAlreadyAttached","inputs":[{"name":"target","type":"address","internalType":"address"}]},{"type":"error","name":"TargetNotAttached","inputs":[{"name":"target","type":"address","internalType":"address"}]},{"type":"error","name":"UnsupportedSelector","inputs":[{"name":"selector","type":"bytes4","internalType":"bytes4"}]}],"bytecode":{"object":"0x6080806040523460d0577ff0c57e16840df040f15088dc2f81fe391c3923bec73e23a9662efc9c229c6a005460ff8160401c1660c1576002600160401b03196001600160401b03821601605c575b604051612e4690816100d58239f35b6001600160401b0319166001600160401b039081177ff0c57e16840df040f15088dc2f81fe391c3923bec73e23a9662efc9c229c6a005581527fc7f505b2f371ae2175ee4913f4499e1f2633a7b5936321eed1cdaeb6115181d290602090a15f80604d565b63f92ee8a960e01b5f5260045ffd5b5f80fdfe6080806040526004361015610012575f80fd5b5f905f3560e01c90816301ffc9a714611372575080631100482d1461130357806312e3b9b81461128c578063167cb15f14611226578063181f5a77146111ce5780631dea3a2614610fc457806320de894714610f4c578063225435c014610edd578063248a9ca314610eb65780632825a75914610e8e5780632f2ff15d14610e5c578063324616cd14610c2857806336568abe14610be357806361740d0414610bb057806365ea356c14610b4f57806370301a3514610aaa57806373691dde14610a7457806375b238fc14610a3957806385ee7ba614610870578063907990af1461085957806391d1485414610803578063a217fddf146107e7578063ae818798146107ba578063c2098e08146107a0578063c6b9f30a146106b0578063c9ff3c28146104bd578063ce5b24ba1461018f5763d547741f14610152575f80fd5b3461018c57604036600319011261018c5761018860043561017161141b565b9061018361017e82611697565b612056565b612500565b5080f35b80fd5b503461018c5760a036600319011261018c576101a9611405565b6101b16113d9565b6101b9611431565b916064356001600160401b0381116104b9576101d990369060040161145b565b608435916101e5611fe7565b6101ee846115b1565b9563ffffffff60e01b861696878952602052604088209586549081861161045b578261021a91886123a0565b600160401b8110156103dd5760018101808855610237828961166e565b50508111610433575b8481116103f1575061027a81610256868961166e565b81546001600160a01b0393841660039290921b91821b9390911b1916919091179055565b610283856115e9565b8789526020526040882060018060a01b0382165f5260205260405f206001600160401b0384116103dd57600160401b84116103dd5780548482558085106103b7575b5088526020882082895b8581106103a3575050506001600160a01b031691823b156103945787604051633aaf77c760e01b8152886004820152818160248183895af180156103985761037b575b50509361035c610375927f145839c7ac2e3276312220a7cc5022be9ba789bd5e7c66ab998fb8146081f9db96604051968796875260208701526080604087015260808601916116b5565b83810360608501526001600160a01b03909116956116d9565b0390a380f35b816103889197939761148b565b6103945793875f610312565b8780fd5b6040513d84823e3d90fd5b6001906020833593019281850155016102cf565b818a528460208b2091820191015b8181106103d257506102c5565b8a81556001016103c5565b634e487b7160e01b89526041600452602489fd5b5f19810181811161044757610409610425918961166e565b905460039190911b1c6001600160a01b0316610256838a61166e565b8015610433575f1901610240565b634e487b7160e01b89526011600452602489fd5b634e487b7160e01b8a52601160045260248afd5b60405163dd23c3ad60e01b815260206004820152602f60248201527f506f736974696f6e2069732067726561746572207468616e20746865206e756d60448201526e626572206f6620706f6c696369657360881b6064820152608490fd5b8480fd5b503461018c57608036600319011261018c576104d7611405565b6024356044359163ffffffff60e01b83168093036106ac576064356001600160401b0381116104b957366023820112156104b9578060040135916001600160401b0383116106a857602482019160248436920101116106a8575f80516020612df183398151915286525f80516020612db183398151915260209081526040808820335f908152925290205460ff1615610684578361057482611621565b54036106555761058381611621565b61058d8154611fd9565b905585806040516020810190888252868660248301376105c060248289810186838201520301601f19810183528261148b565b519082855af16105ce611922565b901561061e5750907f86271a913e2e985b5b58d4044098f57a8000840b87827249e6e3bad5569b3585916106186040519283926020845260018060a01b0316956020840191611862565b0390a480f35b60408051630b6ef07160e01b81526001600160a01b039093166004840152602483015281906106519060448301906114db565b0390fd5b858185610663606494611621565b5463180f261d60e11b84526001600160a01b03909216600452602452604452fd5b63e2517d3f60e01b8652336004525f80516020612df1833981519152602452604486fd5b8580fd5b8380fd5b503461018c57604036600319011261018c576106ca611405565b6024359081151580920361079c5760207f5061da64cbea3bcfe09a1b505dcaca42b0abfd7abef1672b68864db65c1a937b91610704611fe7565b6001600160a01b0381165f9081527f9876d26c639ec5f9246047c1a6b3d2d4c94a7f0dd7848b1a4f882f50fcb29f0760205260409020805460ff191660011790556001600160a01b0381165f9081527f9876d26c639ec5f9246047c1a6b3d2d4c94a7f0dd7848b1a4f882f50fcb29f0860205260409020805460ff191660ff86161790556040519384526001600160a01b031692a280f35b8280fd5b503461018c576107b76107b23661150e565b611c21565b80f35b503461018c57602036600319011261018c5760206107de6107d9611405565b611621565b54604051908152f35b503461018c578060031936011261018c57602090604051908152f35b503461018c57604036600319011261018c57604061081f61141b565b9160043581525f80516020612db1833981519152602052209060018060a01b03165f52602052602060ff60405f2054166040519015158152f35b503461018c576107b761086b3661150e565b611951565b503461018c57604036600319011261018c5761088a6114ff565b61089261141b565b5f80516020612dd1833981519152549160ff8360401c1615926001600160401b03811680159081610a31575b6001149081610a27575b159081610a1e575b50610a0f57602061097b93927f0d842ae16ab62667b3c211449791eed5e8ee54fc026bb38abefc2de44a852ee0928660016001600160401b03198316175f80516020612dd1833981519152556109e3575b5061092a612c84565b610932612c84565b151560ff195f80516020612d91833981519152541660ff8216175f80516020612d9183398151915255604051908152a161096b81612114565b50610975816121b0565b50612269565b50610984612c84565b61098b5780f35b68ff0000000000000000195f80516020612dd183398151915254165f80516020612dd1833981519152557fc7f505b2f371ae2175ee4913f4499e1f2633a7b5936321eed1cdaeb6115181d2602060405160018152a180f35b68ffffffffffffffffff191668010000000000000001175f80516020612dd1833981519152555f610921565b63f92ee8a960e01b8552600485fd5b9050155f6108d0565b303b1591506108c8565b8591506108be565b503461018c578060031936011261018c5760206040517fa49807205ce4d355092ef5a8a18f56e8913cf4a201fbe287825b095693c217758152f35b503461018c57602036600319011261018c5760206001600160a01b03610aa0610a9b611405565b611579565b5416604051908152f35b503461018c57604036600319011261018c57610afb90610ac8611405565b610ad9610ad36113d9565b916115b1565b9063ffffffff60e01b168252602052610b0260408220604051938480926116d9565b038361148b565b604051918291602083016020845282518091526020604085019301915b818110610b2d575050500390f35b82516001600160a01b0316845285945060209384019390920191600101610b1f565b503461018c57602036600319011261018c576020906001600160e01b0319610b756113c2565b1681527f9876d26c639ec5f9246047c1a6b3d2d4c94a7f0dd7848b1a4f882f50fcb29f018252604060018060a01b0391205416604051908152f35b503461018c57604036600319011261018c576107b7610bcd6113c2565b610bd561141b565b90610bde611fe7565b61209c565b503461018c57604036600319011261018c57610bfd61141b565b336001600160a01b03821603610c195761018890600435612500565b63334bd91960e11b8252600482fd5b503461018c57608036600319011261018c57610c42611405565b610c4a6113d9565b90610c53611431565b906064356001600160401b0381116104b957610c7390369060040161145b565b92610c7c611fe7565b610c878186856123a0565b610c90836115b1565b9463ffffffff60e01b169485875260205260408620805490600160401b821015610e48576102568284926001610cc89501815561166e565b610cd1836115e9565b8587526020526040862060018060a01b0382165f5260205260405f206001600160401b038511610e3457600160401b8511610e34578054858255808610610e0e575b5086526020862082875b868110610dfa575050506001600160a01b031690813b156106a85785604051633aaf77c760e01b8152866004820152818160248183885af1801561039857610de5575b5050610d6b836115b1565b85875260205260408620545f19810193908411610dd1577f28fabf7d66d5e966e942134736ca9e452229777ddbb4e8a7052c467691b227a193929161037591604051948594855260208501526060604085015260018060a01b03169560608401916116b5565b634e487b7160e01b87526011600452602487fd5b81610def9161148b565b6106a857855f610d60565b600190602083359301928185015501610d1d565b818852856020892091820191015b818110610e295750610d13565b888155600101610e1c565b634e487b7160e01b87526041600452602487fd5b634e487b7160e01b88526041600452602488fd5b503461018c57604036600319011261018c57610188600435610e7c61141b565b90610e8961017e82611697565b61230f565b503461018c578060031936011261018c5760206040515f80516020612df18339815191528152f35b503461018c57602036600319011261018c576020610ed5600435611697565b604051908152f35b503461018c578060031936011261018c5760ff610ef933611541565b541615610f3957610f0933611541565b805460ff19169055337ffbff472d16062cbd4f1034661b8d65613fbab207b33439b5b48d0f5007756d1a8280a280f35b6302aa834160e31b815233600452602490fd5b503461018c57602036600319011261018c577f0d842ae16ab62667b3c211449791eed5e8ee54fc026bb38abefc2de44a852ee06020610f896114ff565b610f91611fe7565b151560ff195f80516020612d91833981519152541660ff8216175f80516020612d9183398151915255604051908152a180f35b50346111aa5760603660031901126111aa57610fde611405565b610fe66113d9565b90610fef611431565b92610ff8611fe7565b611001826115b1565b6001600160e01b03199093165f81815260209490945260408420946001600160a01b031690845b86548110156111c2578261103c828961166e565b905460039190911b1c6001600160a01b03161461105b57600101611028565b90919293945061106b818761166e565b905460039190911b1c6001600160a01b0316905b86545f1981019081116110cc578110156110e05760018101908181116110cc576110c66110ae6001938a61166e565b848060a01b0391549060031b1c16610256838b61166e565b0161107f565b634e487b7160e01b5f52601160045260245ffd5b5091939490929481549182156111ae5784925f190190611100828261166e565b81546001600160a01b0360039290921b82901b19169091559190556040518681529116907f82e3ebd612ef316c06b73a972c96b93e5371e005dfc3198c2455ed5c36675f7e90602090a35b6001600160a01b031661115c578280f35b813b156111aa575f916024839260405194859384926304e3021760e41b845260048401525af1801561119f5761119157808280f35b61119d91505f9061148b565b005b6040513d5f823e3d90fd5b5f80fd5b634e487b7160e01b5f52603160045260245ffd5b5092509290935061114b565b346111aa575f3660031901126111aa576112226040516111ef60408261148b565b60128152710506f6c696379456e67696e6520312e302e360741b60208201526040519182916020835260208301906114db565b0390f35b346111aa5760403660031901126111aa576004356001600160401b0381116111aa5761125690369060040161145b565b61125e61141b565b91611267611fe7565b5f5b8281101561119d5760019061128685610bde8360051b8601611659565b01611269565b346111aa5760403660031901126111aa576112a5611405565b6112ad61141b565b6112b5611fe7565b6112be82611579565b80546001600160a01b0319166001600160a01b0392831690811790915591167fc01fb5f7ec1909e5caecf5905c4d6940d56a05de9408857500a72a66b1e6c86a5f80a3005b346111aa575f3660031901126111aa5760ff61131e33611541565b541661135f5761132d33611541565b805460ff19166001179055337f2a9f095d1d96c5aea50e230201fe3fc7b048fc356d4443c5d9dcc086d8b11eab5f80a2005b636904fc7f60e11b5f523360045260245ffd5b346111aa5760203660031901126111aa576020906001600160e01b03196113976113c2565b16637965db0b60e01b81149081156113b1575b5015158152f35b6301ffc9a760e01b149050836113aa565b600435906001600160e01b0319821682036111aa57565b602435906001600160e01b0319821682036111aa57565b35906001600160e01b0319821682036111aa57565b600435906001600160a01b03821682036111aa57565b602435906001600160a01b03821682036111aa57565b604435906001600160a01b03821682036111aa57565b35906001600160a01b03821682036111aa57565b9181601f840112156111aa578235916001600160401b0383116111aa576020808501948460051b0101116111aa57565b90601f801991011681019081106001600160401b038211176114ac57604052565b634e487b7160e01b5f52604160045260245ffd5b6001600160401b0381116114ac57601f01601f191660200190565b805180835260209291819084018484015e5f828201840152601f01601f1916010190565b6004359081151582036111aa57565b60206003198201126111aa57600435906001600160401b0382116111aa5760809082900360031901126111aa5760040190565b6001600160a01b03165f9081527f9876d26c639ec5f9246047c1a6b3d2d4c94a7f0dd7848b1a4f882f50fcb29f046020526040902090565b6001600160a01b03165f9081527f9876d26c639ec5f9246047c1a6b3d2d4c94a7f0dd7848b1a4f882f50fcb29f026020526040902090565b6001600160a01b03165f9081527f9876d26c639ec5f9246047c1a6b3d2d4c94a7f0dd7848b1a4f882f50fcb29f056020526040902090565b6001600160a01b03165f9081527f9876d26c639ec5f9246047c1a6b3d2d4c94a7f0dd7848b1a4f882f50fcb29f066020526040902090565b6001600160a01b03165f9081527f9876d26c639ec5f9246047c1a6b3d2d4c94a7f0dd7848b1a4f882f50fcb29f036020526040902090565b356001600160e01b0319811681036111aa5790565b8054821015611683575f5260205f2001905f90565b634e487b7160e01b5f52603260045260245ffd5b5f525f80516020612db1833981519152602052600160405f20015490565b81835290916001600160fb1b0383116111aa5760209260051b809284830137010190565b90602082549182815201915f5260205f20905f5b8181106116fa5750505090565b82546001600160a01b03168452602090930192600192830192016116ed565b81601f820112156111aa57803590611730826114c0565b9261173e604051948561148b565b828452602083830101116111aa57815f926020809301838601378301015290565b91906080838203126111aa5760405190608082018281106001600160401b038211176114ac576040528193611793816113f0565b83526117a160208201611447565b602084015260408101356001600160401b0381116111aa57826117c5918301611719565b60408401526060810135916001600160401b0383116111aa576060926117eb9201611719565b910152565b80518210156116835760209160051b010190565b356001600160a01b03811681036111aa5790565b903590601e19813603018212156111aa57018035906001600160401b0382116111aa576020019181360383136111aa57565b908160209103126111aa575160038110156111aa5790565b908060209392818452848401375f828201840152601f01601f1916010190565b929091969593949660a084019260018060a01b0316845260018060a01b0316602084015263ffffffff60e01b16604083015260a06060830152835180915260c0820190602060c08260051b8501019501915f905b8282106118f75750505050938460806118f495968503910152611862565b90565b9091929560208061191460019360bf198982030186528a516114db565b9801920192019092916118d6565b3d1561194c573d90611933826114c0565b91611941604051938461148b565b82523d5f602084013e565b606090565b90610afb9061195f336115b1565b6001600160e01b031961197185611659565b165f5260205261198a60405f20604051938480926116d9565b815115611b51576119a361199e368561175f565b6127a0565b905f925b8051841015611b36576001600160a01b036119c285836117f0565b5116936119ce336115e9565b6001600160e01b03196119e088611659565b165f5260205260405f2060018060a01b0386165f5260205260405f206040519081602082549182815201915f5260205f20905f905b808210611b1e5750505090611a2f81611a4193038261148b565b85611a3a368a61175f565b9188612952565b6020611a4e818901611804565b611a5789611659565b90611a86611a6860608c018c611818565b9060405196879586956371f184a760e11b8752339060048801611882565b0381895afa5f9181611aee575b50611ab2578686611aad611aa5611922565b92369061175f565b612bb2565b9091929394506003811015611ada57600114611ad3576001019291906119a7565b5050915050565b634e487b7160e01b5f52602160045260245ffd5b611b1091925060203d8111611b17575b611b08818361148b565b81019061184a565b905f611a93565b503d611afe565b90919260016020819286548152019401920190611a15565b5092611b4f9250611b499150369061175f565b336125eb565b565b91611b4f9150611b4990369061175f565b9080602083519182815201916020808360051b8301019401925f915b838310611b8d57505050505090565b9091929394602080611bbc600193601f198682030187526040838b5180518452015191818582015201906114db565b97019301930191939290611b7e565b91611be26118f49492604085526040850190611b62565b926020818503910152611862565b9035601e19823603018112156111aa5701602081359101916001600160401b0382116111aa5781360383136111aa57565b611c5991611c2e336115b1565b6001600160e01b0319611c4084611659565b165f52602052611c6060405f20604051948580926116d9565b038461148b565b611c6d61199e368461175f565b835115611fc9579192905f905b8251821015611f72578491906001600160a01b03611c9883866117f0565b511694611ca4336115e9565b6001600160e01b0319611cb686611659565b165f5260205260405f2060018060a01b0387165f5260205260405f206040519081602082549182815201915f5260205f20905f905b808210611f565750505090611d0581611d1793038261148b565b82611d10368861175f565b9189612952565b926020850193806020611d2987611804565b611d3289611659565b90611d62611d4460608c01809c611818565b9060405197889586956371f184a760e11b8752339060048801611882565b03818c5afa5f9281611f36575b50611d81578989611aad611aa5611922565b611d8f869a9799989a611804565b611d9888611659565b611da28b8a611818565b92908b3b156111aa575f93611dce9160405196879586956310dd1d0560e21b8752339060048801611882565b0381838c5af19081611f26575b50611e8b5787876106518888611e7d611df2611922565b95611e1c604051978897637aefb6fd60e11b895260048901526060602489015260648801906114db565b868103600319016044880152926001600160e01b0319611e3b866113f0565b1684526001600160a01b0390611e5090611447565b166020840152611e77611e666040860186611bf0565b608060408701526080860191611862565b93611bf0565b916060818503910152611862565b90939194969295506003811015611ada57600114611eb157505060010190929391611c7a565b611ef4919496507f0b2e605134a9ec92f686f4abfbbc36507be70a7ae8530fda113a86fa9fc795ad9250611ee490611804565b93611eee86611659565b95611818565b6040516001600160e01b03199096169533956001600160a01b03169490928392611f219290919084611bcb565b0390a4565b5f611f309161148b565b5f611ddb565b611f4f91935060203d8111611b1757611b08818361148b565b915f611d6f565b825484528b985060209093019260019283019290910190611ceb565b9392915050611f84611b49368461175f565b611f9060208301611804565b907f0b2e605134a9ec92f686f4abfbbc36507be70a7ae8530fda113a86fa9fc795ad611ef4611fbe85611659565b946060810190611818565b909250611f84611b49368461175f565b5f1981146110cc5760010190565b335f9081527fb16e88c42fd4e48df2dd6a2eabd6bc9aec654ec170056b470819f8892cc6431c602052604090205460ff161561201f57565b63e2517d3f60e01b5f52336004527fa49807205ce4d355092ef5a8a18f56e8913cf4a201fbe287825b095693c2177560245260445ffd5b5f8181525f80516020612db18339815191526020908152604080832033845290915290205460ff16156120865750565b63e2517d3f60e01b5f523360045260245260445ffd5b6001600160e01b0319165f8181527f9876d26c639ec5f9246047c1a6b3d2d4c94a7f0dd7848b1a4f882f50fcb29f016020526040812080546001600160a01b0319166001600160a01b0390941693841790557f72cb65e99284def8051f91b2531254d5c1ff3f139fb216a2df75d19dea382f9d9080a3565b6001600160a01b0381165f9081527fb7db2dd08fcb62d0c9e08c51941cae53c267786a0b75803fb7960902fc8ef97d602052604090205460ff166121ab576001600160a01b03165f8181527fb7db2dd08fcb62d0c9e08c51941cae53c267786a0b75803fb7960902fc8ef97d60205260408120805460ff191660011790553391905f80516020612d718339815191528180a4600190565b505f90565b6001600160a01b0381165f9081527fb16e88c42fd4e48df2dd6a2eabd6bc9aec654ec170056b470819f8892cc6431c602052604090205460ff166121ab576001600160a01b03165f8181527fb16e88c42fd4e48df2dd6a2eabd6bc9aec654ec170056b470819f8892cc6431c60205260408120805460ff191660011790553391907fa49807205ce4d355092ef5a8a18f56e8913cf4a201fbe287825b095693c21775905f80516020612d718339815191529080a4600190565b6001600160a01b0381165f9081527f7fab741ebeb77debb55181695142095e1c2e940280a1aea0865ebbde83930b45602052604090205460ff166121ab576001600160a01b03165f8181527f7fab741ebeb77debb55181695142095e1c2e940280a1aea0865ebbde83930b4560205260408120805460ff191660011790553391905f80516020612df1833981519152905f80516020612d718339815191529080a4600190565b5f8181525f80516020612db1833981519152602090815260408083206001600160a01b038616845290915290205460ff1661239a575f8181525f80516020612db1833981519152602090815260408083206001600160a01b0395909516808452949091528120805460ff19166001179055339291905f80516020612d718339815191529080a4600190565b50505f90565b6001600160a01b039092169182156124ba576123bb816115b1565b9163ffffffff60e01b1691825f52602052600860405f20541015612474576123e2906115b1565b905f526020526123fe61240560405f20604051928380926116d9565b038261148b565b5f5b815181101561246f57826001600160a01b0361242383856117f0565b51161461243257600101612407565b60405163dd23c3ad60e01b8152602060048201526014602482015273141bdb1a58de48185b1c9958591e48185919195960621b6044820152606490fd5b505050565b60405163dd23c3ad60e01b815260206004820152601860248201527f4d6178696d756d20706f6c6963696573207265616368656400000000000000006044820152606490fd5b60405163dd23c3ad60e01b815260206004820152601d60248201527f506f6c69637920616464726573732063616e6e6f74206265207a65726f0000006044820152606490fd5b5f8181525f80516020612db1833981519152602090815260408083206001600160a01b038616845290915290205460ff161561239a575f8181525f80516020612db1833981519152602090815260408083206001600160a01b0395909516808452949091528120805460ff19169055339291907ff6391f5c32d9c69d2a47ea670b442974b53935d1edc7fd64eb21e047a839171b9080a4600190565b6118f49163ffffffff60e01b825116815260018060a01b03602083015116602082015260606125da60408401516080604085015260808401906114db565b9201519060608184039101526114db565b60ff5f80516020612d9183398151915254169060ff6126398260018060a01b03165f527f9876d26c639ec5f9246047c1a6b3d2d4c94a7f0dd7848b1a4f882f50fcb29f0760205260405f2090565b54166126c3575b50156126495750565b604051633ef6b53d60e21b81525f600482015260606024820152603260648201527f6e6f20706f6c69637920616c6c6f7765642074686520616374696f6e20616e6460848201527108191959985d5b1d081a5cc81c995a9958dd60721b60a482015260c060448201529081906106519060c483019061259c565b6001600160a01b03165f9081527f9876d26c639ec5f9246047c1a6b3d2d4c94a7f0dd7848b1a4f882f50fcb29f08602052604081205460ff169150612640565b6001600160401b0381116114ac5760051b60200190565b929192612726826114c0565b91612734604051938461148b565b8294818452818301116111aa578281602093845f96015e010152565b9080601f830112156111aa5781516118f49260200161271a565b6001600160a01b0390911681526060602082018190526118f4939192612792918401906114db565b91604081840391015261259c565b9063ffffffff60e01b8251165f527f9876d26c639ec5f9246047c1a6b3d2d4c94a7f0dd7848b1a4f882f50fcb29f0160205260018060a01b0360405f20541690811561294a57604051632eb8667160e01b8152602060048201525f818061280a602482018861259c565b0381865afa5f9181612849575b50612843575050610651612829611922565b926040519384936308efabed60e31b85526004850161276a565b92509050565b9091503d805f833e61285b818361148b565b8101906020818303126111aa578051906001600160401b0382116111aa57019080601f830112156111aa5781519161289283612703565b926128a0604051948561148b565b80845260208085019160051b830101918383116111aa5760208101915b8383106128d0575050505050905f612817565b82516001600160401b0381116111aa578201906040828703601f1901126111aa5760405190604082018281106001600160401b038211176114ac57604052602083015182526040830151916001600160401b0383116111aa5761293b88602080969581960101612750565b838201528152019201916128bd565b915050606090565b9092906001600160a01b0361296682611579565b541680612a9957505050815161297b81612703565b90612989604051928361148b565b808252612998601f1991612703565b015f5b818110612a8857505082518015612a81575f805b8451811015612a3b575f5b8381106129db575b508282146129d2576001016129af565b50505091505090565b6129e7828793976117f0565b51516129f382896117f0565b5114612a04576001019490946129ba565b91612a2e86936020612a1a8599612a34966117f0565b510151612a2782896117f0565b52866117f0565b50611fd9565b905f6129c2565b60405163dd23c3ad60e01b815260206004820152601960248201527f4d697373696e6720706f6c69637920706172616d6574657273000000000000006044820152606490fd5b5091505090565b80606060208093860101520161299b565b5f91945092612ac7929593604051808095819463772de24960e11b8352602060048401526024830190611b62565b03915afa5f9181612aff575b50612843575050610651612ae5611922565b92604051938493632f476b3360e01b85526004850161276a565b9091503d805f833e612b11818361148b565b8101906020818303126111aa578051906001600160401b0382116111aa57019080601f830112156111aa578151612b4781612703565b92612b55604051948561148b565b81845260208085019260051b820101918383116111aa5760208201905b838210612b85575050505050905f612ad3565b81516001600160401b0381116111aa57602091612ba787848094880101612750565b815201910190612b72565b91612bbc81612cc0565b91906001600160e01b031916630e4254bb60e31b03612c66575080518101906020818184019303126111aa576020810151906001600160401b0382116111aa570181603f820112156111aa57610651918160406020612c1e940151910161271a565b604051633ef6b53d60e21b81526001600160a01b0390931660048401526060602484015291928392612c549060648501906114db565b8381036003190160448501529061259c565b82610651856040519384936368c8c7c560e01b85526004850161276a565b60ff5f80516020612dd18339815191525460401c1615612ca057565b631afcd79f60e31b5f5260045ffd5b908151811015611683570160200190565b90815160048110612d6a5760208301516001600160e01b0319169160031982019182116110cc57612cf0826114c0565b91612cfe604051938461148b565b808352612d0d601f19916114c0565b013660208401375f5b845160031981019081116110cc57811015612d635760048101908181116110cc576001916001600160f81b031990612d4e9088612caf565b51165f1a612d5c8286612caf565b5301612d16565b5091925090565b505f919056fe2f8788117e7eff1d82e926ec794901d17c78024a50270940304540a733656f0d9876d26c639ec5f9246047c1a6b3d2d4c94a7f0dd7848b1a4f882f50fcb29f0002dd7bc7dec4dceedda775e58dd541e08a116c6c53815c0bd028192f7b626800f0c57e16840df040f15088dc2f81fe391c3923bec73e23a9662efc9c229c6a008e89fc5516c5c0467b8522d6f75a479deaecb2757cd6cdc10a3dd8c064574369a2646970667358221220149cc75b7493179d065678aceec8da7bc09299044483a8af16433e9ae2e08d7064736f6c634300081a0033","linkReferences":{}},"methodIdentifiers":{"ADMIN_ROLE()":"75b238fc","DEFAULT_ADMIN_ROLE()":"a217fddf","POLICY_CONFIG_ADMIN_ROLE()":"2825a759","addPolicy(address,bytes4,address,bytes32[])":"324616cd","addPolicyAt(address,bytes4,address,bytes32[],uint256)":"ce5b24ba","attach()":"1100482d","check((bytes4,address,bytes,bytes))":"907990af","detach()":"225435c0","getExtractor(bytes4)":"65ea356c","getPolicies(address,bytes4)":"70301a35","getPolicyConfigVersion(address)":"ae818798","getPolicyMapper(address)":"73691dde","getRoleAdmin(bytes32)":"248a9ca3","grantRole(bytes32,address)":"2f2ff15d","hasRole(bytes32,address)":"91d14854","initialize(bool,address)":"85ee7ba6","removePolicy(address,bytes4,address)":"1dea3a26","renounceRole(bytes32,address)":"36568abe","revokeRole(bytes32,address)":"d547741f","run((bytes4,address,bytes,bytes))":"c2098e08","setDefaultPolicyAllow(bool)":"20de8947","setExtractor(bytes4,address)":"61740d04","setExtractors(bytes4[],address)":"167cb15f","setPolicyConfiguration(address,uint256,bytes4,bytes)":"c9ff3c28","setPolicyMapper(address,address)":"12e3b9b8","setTargetDefaultPolicyAllow(address,bool)":"c6b9f30a","supportsInterface(bytes4)":"01ffc9a7","typeAndVersion()":"181f5a77"},"id":1}